:100000000C94A6000C94CE000C94CE000C94CE0060
:100010000C94CE000C94CE000C94CE000C94CE0028
:100020000C94CE000C94CE000C94CE000C94CE0018
:100030000C94CE000C94CE000C94CE000C94CE0008
:100040000C9418130C94CE000C94E6120C94C0126D
:100050000C94CE000C94CE000C94CE000C94CE00E8
:100060000C94CE000C94CE0007634236B79BD8A701
:100070001A39685618AEBAAB558C1D3CB7CC5763CD
:10008000BD6DEDFD753EF6177231BF000000803F7B
:1000900008000000BE922449123EABAAAA2ABECD97
:1000A000CCCC4C3E00000080BEABAAAAAA3E000009
:1000B0000000BF000000803F000000000008417801
:1000C000D3BB4387D1133D190E3CC3BD4282AD2B38
:1000D0003E68EC8276BED98FE1A93E4C80EFFFBE30
:1000E00001C4FF7F3F00000000007C3C3E5E2B3DD2
:1000F0003F2F5B5D3B2C2A225C00000000080002C1
:1001000001000003040700000000000000000000E0
:100110000000250028002B0000000000240027001C
:100120002A00040404040404040402020202020279
:1001300003030303030301020408102040800102AB
:1001400004081020010204081020621311241FBEAD
:10015000CFEFD8E0DEBFCDBF25E0AEECB1E001C00F
:100160001D92A032B207E1F711E0A0E0B1E0E8E0B3
:10017000F5E302C005900D92AE3CB107D9F710E04F
:10018000C6EAD0E004C02197FE010E942919C53AB1
:10019000D107C9F70E94B9130C94821A0C9400007D
:1001A00090E0FC01EA5CFE4F24918E5D9E4FFC01C5
:1001B0008491882399F090E0880F991FFC01E85EF4
:1001C000FE4FA591B491FC01E25FFE4F85919491A1
:1001D0008FB7F894EC91E22BEC938FBF0895CF93F7
:1001E000DF93FC0182819381909304058093030542
:1001F00084819581A681B78180930505909306053A
:10020000A0930705B093080580859185A285B385E5
:100210008093090590930A05A0930B05B0930C05F4
:10022000DF011C96CF014996CDE0D5E02D912993B1
:10023000A817B907D9F7818D928D90931B058093EC
:100240001A0581E095E0DF91CF910895AF92BF92BA
:10025000CF92DF92EF92FF920F931F93CF93DF9392
:100260006C017B018B01040F151FEB015E01AE18C1
:10027000BF08C017D10759F06991D601ED91FC91E3
:100280000190F081E02DC6010995892B79F7C50110
:10029000DF91CF911F910F91FF90EF90DF90CF9062
:1002A000BF90AF900895FC01538D448D252F30E011
:1002B000842F90E0821B930B541710F0CF96089573
:1002C00001970895FC01918D828D981761F0A28DA0
:1002D000AE0FBF2FB11D5D968C91928D9F5F9F7366
:1002E000928F90E008958FEF9FEF0895FC01918D1C
:1002F000828D981731F0828DE80FF11D858D90E089
:1003000008958FEF9FEF0895FC01918D228D892F25
:1003100090E0805C9F4F821B91098F73992708950D
:1003200089E194E00E94840121E0892B09F420E016
:10033000822F0895FC01A48DA80FB92FB11DA35AD7
:10034000BF4F2C91848D90E001968F739927848FF5
:10035000A689B7892C93A089B1898C918370806418
:100360008C93938D848D981306C00288F389E02DB9
:1003700080818F7D80830895EF92FF920F931F936A
:10038000CF93DF93EC0181E0888F9B8D8C8D981348
:100390001AC0E889F989808185FF15C09FB7F89454
:1003A000EE89FF896083E889F989808183708064A0
:1003B00080839FBF81E090E0DF91CF911F910F91EB
:1003C000FF90EF900895F62E0B8D10E00F5F1F4FFA
:1003D0000F731127E02E8C8D8E110CC00FB607FC09
:1003E000FACFE889F989808185FFF5CFCE010E9497
:1003F0009A01F1CFEB8DEC0FFD2FF11DE35AFF4F6A
:10040000F0829FB7F8940B8FEA89FB898081806224
:10041000CFCFCF93DF93EC01888D8823B9F0AA89E1
:10042000BB89E889F9898C9185FD03C0808186FDAF
:100430000DC00FB607FCF7CF8C9185FFF2CF8081FE
:1004400085FFEDCFCE010E949A01E9CFDF91CF91D8
:10045000089590E0FC01E650FF4F2491FC01EA5C16
:10046000FE4F3491FC01EE5DFE4FE491EE23C9F0A6
:10047000222339F0233001F1A8F4213019F1223080
:1004800029F1F0E0EE0FFF1FE25FFE4FA591B4915E
:100490008FB7F894EC91611126C030953E233C93C0
:1004A0008FBF08952730A9F02830C9F0243049F7CC
:1004B000809180008F7D03C0809180008F77809332
:1004C0008000DFCF84B58F7784BDDBCF84B58F7D8F
:1004D000FBCF8091B0008F778093B000D2CF809116
:1004E000B0008F7DF9CF3E2BDACF3FB7F8948091E3
:1004F000120290911302A0911402B091150226B538
:10050000A89B05C02F3F19F00196A11DB11D3FBF4B
:10051000BA2FA92F982F8827BC01CD01620F711D1A
:10052000811D911D42E0660F771F881F991F4A9514
:10053000D1F708952FB7F89460910E0270910F02D1
:1005400080911002909111022FBF08958F929F9277
:10055000AF92BF92EF92FF920F931F93CF93DF93CF
:100560007B018C01D0E0C0E00E949A0260932104DC
:1005700070932204809323049093240489E194E0EF
:100580000E94620197FF27C00E949A028090210476
:1005900090902204A0902304B09024046819790953
:1005A0008A099B0980901D0490901E04A0901F044E
:1005B000B0902004681579058A059B05F8F2CE01F4
:1005C000DF91CF911F910F91FF90EF90BF90AF906F
:1005D0009F908F900895F80181938F012196EC16DA
:1005E000FD0611F6ECCF8FB7F894809107028FBF0C
:1005F000089561E0FC0184810E9429028091060235
:1006000081111092060208958EBD00000DB407FE00
:10061000FDCF8EB508958FEF0C9404030F931F93B5
:10062000CF93DF93EC010E949A028B010E940B038F
:100630008F3F69F00E949A02601B710B6C177D0757
:10064000A8F380E0DF91CF911F910F91089581E091
:10065000F9CF8CBD9DBD0895CF93DF93EC018091C0
:100660000602811109C081E0809306028091B604E0
:100670009091B7040E94290360E08C81DF91CF91B3
:100680000C9429028F929F92AF92BF92FF920F9388
:100690001F93CF93DF93EC01F62E49015A018E810F
:1006A000882389F08F8198859C012F5F3F4F388781
:1006B0002F838230924018F40E940B03F3CFCE01B7
:1006C0000E94F9021E82CE010E942C038CE291E06E
:1006D0000E940E038F2D80640E94040308E110E045
:1006E000D501C401002E04C0B695A79597958795AE
:1006F0000A94D2F70E94040308501109083F8FEFB3
:10070000180771F785E9FF2021F028E087E8F21249
:100710008FEF0E94040310E00E940B038A8787FF7B
:1007200004C01F3F11F01F5FF7CFDF91CF911F91E2
:100730000F91FF90BF90AF909F908F900895AF92D0
:10074000BF92CF92DF92EF92FF920F931F93CF93BE
:10075000DF93EC016901C801820F931F8130924041
:1007600050F58E81882379F088819981AA81BB8197
:1007700084179507A607B70731F48F819885C816A7
:10078000D90608F042C0488359836A837B838B85EE
:10079000833039F089E0440F551F661F771F8A9513
:1007A000D1F79A01AB0161E1CE010E944203882397
:1007B00089F083E08D83CE010E94F90280E0DF9111
:1007C000CF911F910F91FF90EF90DF90CF90BF904E
:1007D000AF9008950E949A025B010E940B038A87E2
:1007E0008F3F69F40E949A026A197B096D32714049
:1007F000A0F38FE08D83CE010E94F902DCCF8E3F03
:1008000089F418861F8281E08E838F8198858C15EC
:100810009D0550F40E940B038F819885019698875F
:100820008F83F3CF8DE0E6CF6701E00EF11E0E94CB
:100830000B03F60181936F01EE15FF05C1F78F8160
:100840009885080F191F18870F838985882319F049
:1008500001151240A0F08E81882389F08F81988540
:100860009C012F5F3F4F38872F838230924018F4CE
:100870000E940B03F3CFCE010E94F9021E8281E099
:100880009ECFCF92DF92EF92FF920F93CF93DF93A1
:10089000EC01690182E1411551056105710599F08D
:1008A0008B85833039F089E0440F551F661F771F11
:1008B0008A95D1F79A01AB0168E1CE010E9442030B
:1008C000882319F084E08D832DC08EEF0E940403ED
:1008D00076018EEFD81AF70181917F010E940403FF
:1008E000EC14FD04C1F78FEF0E9404038FEF0E9408
:1008F00004030E940B038A878F71853071F4011104
:1009000016C0CE010E94F90281E0DF91CF910F91D4
:10091000FF90EF90DF90CF90089581E18D83CE011D
:100920000E94F902CE010E94F90280E0EECF88E534
:1009300092E00E940E03811102C085E1C4CF20E045
:1009400030E0A9016DE0CE010E944203882311F03E
:1009500084E1B9CF0E940B038111FACFD2CF0F935C
:100960004091090250910A0260910B0270910C02B1
:10097000411551056105710599F0082F27E132E015
:1009800080911704909118040E944104882349F033
:100990001092090210920A0210920B0210920C029D
:1009A00081E00F9108950F93CF93C82F8091080293
:1009B000811105C0C1E08C2FCF910F910895409116
:1009C00000015091010160910201709103010C2F0F
:1009D00027E132E080911704909118040E944104AD
:1009E000811102C0C0E0E7CFCC2321F381E00E9457
:1009F000AF048823B9F310920802DDCF8F929F9243
:100A0000AF92BF92EF92FF920F931F93CF934B0140
:100A10005C01C42F8091000190910101A09102011D
:100A2000B091030188159905AA05BB0551F181E034
:100A30000E94D30481110BC080E0CF911F910F91D0
:100A4000FF90EF90BF90AF909F908F90089587E1B7
:100A5000E82E82E0F82E00E012E030E020E0B50160
:100A6000A40180911704909118040E949F03882389
:100A700019F38092000190920101A0920201B092BC
:100A80000301409108024C2B4093080281E0D5CF2E
:100A90008F929F92AF92BF92CF92DF92EF92FF928E
:100AA000CF9328EB34E03093180420931704882365
:100AB00009F46DC040E060E070E0CB010E94FE04EC
:100AC00081110BC080E0CF91FF90EF90DF90CF902D
:100AD000BF90AF909F908F9008958091D5038F77AE
:100AE00089F78091E1039091E203A091E303B09133
:100AF000E40384369105A105B10520F3C090DD0320
:100B0000D090DE03E090DF03F090E003C114D10445
:100B1000E104F104B9F240E0C701B6010E94FE040D
:100B2000882381F2809122029091230281159240C4
:100B300049F6A0912702AA2329F26091250270911B
:100B400026026115710509F4BDCF209124022223EC
:100B500009F4B8CFA093D6042093C80490E080E0B5
:100B600030E0E1E0F0E0C82FAF01082E02C0440FF2
:100B7000551F0A94E2F72417350769F041E0480F42
:100B800001968930910579F74093D1049BCFC12C10
:100B9000D12C7601C0CF8093D10420912D023091C9
:100BA0002E0250E040E02115310541F420913B0236
:100BB00030913C0240913D0250913E022093C90485
:100BC0003093CA044093CB045093CC0446015701A0
:100BD000860E971EA11CB11C8092D7049092D80457
:100BE000A092D904B092DA04E0912802F09129028F
:100BF000F093DD04E093DC04B0E00E945316DC01C6
:100C0000CB01880D991DAA1DBB1D8093DE04909316
:100C1000DF04A093E004B093E10425E0EE0FFF1F92
:100C20002A95E1F7E150FE4FEF2FFF27E6958E0F53
:100C30009F1FA11DB11D8093D2049093D304A09354
:100C4000D404B093D50480902A0290902B02B12C4A
:100C5000A12C8114910441F48090370290903802C5
:100C6000A0903902B0903A02C81AD90AEA0AFB0ADF
:100C7000C80CD91CEA1CFB1C04C0F694E794D7945A
:100C8000C794CA95D2F7C092CD04D092CE04E09218
:100C9000CF04F092D00485EFC8168FE0D806E104A7
:100CA000F10428F48CE08093DB0481E00CCF80E138
:100CB00025EFC2162FEFD206E104F104A0F38091D4
:100CC000430290914402A0914502B0914602809364
:100CD000DE049093DF04A093E004B093E10480E28B
:100CE000E2CF4F925F926F927F928F929F92AF92DC
:100CF000BF92CF92DF92EF92FF920F931F93CF9309
:100D0000DF93EC01423051056105710590F480E0FC
:100D1000DF91CF911F910F91FF90EF90DF90CF90D7
:100D2000BF90AF909F908F907F906F905F904F900B
:100D3000089589859A85AB85BC850196A11DB11D55
:100D400084179507A607B70710F3CB88DC88ED88D2
:100D5000FE888F89803109F042C0BB27A72F962FCC
:100D6000852F480159012A013B01C80ED91EEA1EF0
:100D7000FB1E8091000190910101A0910201B091B0
:100D80000301C816D906EA06FB0699F58F8980315A
:100D9000C1F5B301A201552766277727440F551FD8
:100DA000495E5D4FFA0191828082809108028160E4
:100DB000809308028A89823080F08D819E81AF8184
:100DC000B8858C0D9D1DAE1DBF1D809309029093AB
:100DD0000A02A0930B02B0930C0281E099CFDB01D1
:100DE000CA01E7E0B695A79597958795EA95D1F75B
:100DF000B8CF40E0C701B6010E94FE048111C6CF02
:100E000086CFB301A2014F77552766277727440F76
:100E1000551F440F551F495E5D4FFA018082918234
:100E2000A282B382C2CF8F929F92AF92BF92CF9293
:100E3000DF92EF92FF920F931F93CF93DF93FC010A
:100E400081859285A385B4850196A11DB11D841766
:100E50009507A607B70770F480E0DF91CF911F9147
:100E60000F91FF90EF90DF90CF90BF90AF909F9049
:100E70008F90089583889488A588B6888789803163
:100E800089F5BB27A72F962F852FE9016A017B01E2
:100E90008F01BC01CD01680D791D8A1D9B1D8090BD
:100EA000000190900101A0900201B090030186160C
:100EB0009706A806B90601F5F8018789803111F572
:100EC000DD24EE24FF24F601EE0FFF1FE95EFD4F47
:100ED00080819181B0E0A0E088839983AA83BB835D
:100EE00081E0BBCFDB01CA01C7E0B695A795979516
:100EF0008795CA95D1F7C9CF40E00E94FE048111C1
:100F0000DBCFAACFE894C7F8DD24EE24FF24F60156
:100F1000EE0FFF1FEE0FFF1FE95EFD4F80819181F5
:100F2000A281B381BF70D8CF4F925F926F927F92B0
:100F3000AF92BF92CF92DF92EF92FF920F931F93E7
:100F4000CF93DF9300D000D0CDB7DEB78C014983BB
:100F50005A836B837C835901C12CD12C7601412C9F
:100F600082E0582E612C712C49815A816B817C81E1
:100F70009E012F5F3F4FC8010E941307882339F15C
:100F8000F8018585A301920104C0220F331F441F7D
:100F9000551F8A95D2F7DA01C901C80ED91EEA1E7B
:100FA000FB1E49815A816B817C818789803111F1D7
:100FB00088EF9FEFAFEFBFE0481759076A077B073D
:100FC00098F2F501C082D182E282F38281E00F9033
:100FD0000F900F900F90DF91CF911F910F91FF9085
:100FE000EF90DF90CF90BF90AF907F906F905F9029
:100FF0004F90089588EF9FEFA0E0B0E0DDCFCF9352
:10100000DF93FC012581222321F080E0DF91CF9145
:101010000895EC018091DB04803159F582E08583ED
:10102000178A108E118E128E8091DC049091DD044F
:10103000B0E0A0E025E0880F991FAA1FBB1F2A95EA
:10104000D1F7838B948BA58BB68B84EC94E09C8F2B
:101050008B8F81E08C831E821F82188619861A86E8
:101060001B861C861D861E861F86188A198A1A8A68
:10107000CDCF803251F683E085834091DE045091DC
:10108000DF046091E0047091E104478B508F618F21
:10109000728F9F012D5E3F4F84EC94E00E94940775
:1010A0008111D3CFB2CF8F929F92AF92BF92CF9246
:1010B000DF92EF92FF920F931F93CF93DF93EC0198
:1010C0008D8181110EC080E0DF91CF911F910F9132
:1010D000FF90EF90DF90CF90BF90AF909F908F9058
:1010E00008950B891C892D893E8904171507260749
:1010F000370748F34A015B01823031F48A869B86C8
:10110000AC86BD8681E0E0CF81149104A104B104D6
:1011100049F41E821F82188619861A861B861C8631
:101120001D86F0CF0A851B852C853D85EB8DFC8DBA
:10113000858590E00996B901A801415051096109DE
:101140007109082E04C076956795579547950A94BE
:10115000D2F775016401E1E0CE1AD108E108F10887
:1011600004C0F694E794D794C7948A95D2F7C4162E
:10117000D506E606F70620F0012B022B032B11F50E
:101180008F89988DA98DBA8D8E839F83A887B98703
:101190008E010A5F1F4FC114D104E104F10409F468
:1011A000ADCF4E815F816885798598018B8D9C8D4F
:1011B0000E94130791E0C91AD108E108F1088111D2
:1011C000EACF81CFC41AD50AE60AF70AE1CF3F92E7
:1011D0004F925F926F927F928F929F92AF92BF9247
:1011E000CF92DF92EF92FF920F931F93CF93DF93F3
:1011F000CDB7DEB72C970FB6F894DEBF0FBECDBFCC
:101200005C01DC015B968D909C905C9716964D90EE
:101210005D906D907C9019974114510461047104A4
:1012200009F468C0BFEF4B1A5B0A6B0A7B0A312CCA
:10123000F40181859285A385B4859C01AD012F5F62
:101240003F4F4F4F5F4F29873A874B875C8773012A
:1012500062011D821E821F821886F401818592859B
:10126000A385B4852D813E814F8158852817390784
:101270004A075B0708F056C089859A85AB85BC850F
:101280008C159D05AE05BF0550F482E0C82ED12C0B
:10129000E12CF12C92E0492E512C612C712C9E01F5
:1012A0002F5F3F4FB701A601C4010E941307882397
:1012B000C9F189819A81AB81BC81892B8A2B8B2BC7
:1012C00009F1260137019FEF491A590A690A790A7B
:1012D0002D813E814F8158852F5F3F4F4F4F5F4F8C
:1012E0002D833E834F8358873FEFC31AD30AE30A07
:1012F000F30AB3CFF40140805180628073803324BD
:10130000339496CFC414D504E604F70409F70FEF1D
:101310001FEF2FEF3FE0B701A601C4010E94710645
:10132000811119C080E02C960FB6F894DEBF0FBE75
:10133000CDBFDF91CF911F910F91FF90EF90DF9084
:10134000CF90BF90AF909F908F907F906F905F9065
:101350004F903F900895D50116964D915D916D91F6
:101360007C911997411551056105710539F0970177
:101370008601C4010E9471068823A1F2D501169648
:10138000CD92DD92ED92FC921997332051F0D70166
:10139000C6010196A11DB11DF40180839183A28332
:1013A000B383F5018789908DA18DB28D892B8A2B0E
:1013B0008B2B39F48481C78AD08EE18EF28E8068BF
:1013C0008483F50184818062848381E0ACCF1F93A4
:1013D000CF93DF93FC0125812223D1F1162FEC015D
:1013E000848187FF2AC0668577858089918941E05D
:1013F0000E94FE04882361F1EA8980E2E89FF001FF
:101400001124E95EFD4F309719F18D81823040F44F
:101410008B899C89AD89BE89848F958FA68FB78F64
:101420008F89988D938F828F8F89988DA98DBA8D92
:10143000B58BA48B8C818F778C83111103C08C8129
:101440008F7E8C83812FDF91CF911F910C94D304D9
:1014500080E0DF91CF911F910895FF920F931F932A
:10146000CF93DF93EC018D81813041F090E080E0FB
:10147000DF91CF911F910F91FF9008958C8181FF93
:10148000F5CF82FD1BC00091170410911804C8010C
:101490000E942C030E940B03F82EC8010E94F9023F
:1014A0008FEFF812E3CF8C8185FF1BC060E0CE0187
:1014B0000E94E7098C818F7D8C83D8CF4B895C8912
:1014C0006D897E898A859B85AC85BD858417950746
:1014D000A607B707C1F2CE010E9453088111D3CFEE
:1014E000C5CF4091090250910A0260910B027091A0
:1014F0000C02452B462B472B21F080E00E94AF04C5
:10150000B5CF80618C832A853B85317080E092E085
:10151000821B930BADCFCF93DF93EC0161E00E9470
:10152000E709882311F01D8281E0DF91CF910895B2
:101530002F923F924F925F926F927F928F929F92E3
:10154000AF92BF92CF92DF92EF92FF920F931F93D1
:10155000CF93DF9300D000D01F92CDB7DEB77C01D0
:101560005B01342E5D83DC0115968C9115978130DB
:1015700009F0CEC014962C9021FECAC022FCB4C043
:10158000C32CDD8022947FE027222094B22DB170FD
:101590002B2ED7011A964D915D916D917C911D97DF
:1015A000C114D10409F428C15B968D919C915C977C
:1015B000FC0174807A948A019B0169E03695279535
:1015C000179507956A95D1F770228A0111707110ED
:1015D00020C001151105E9F416964D915D916D91AC
:1015E0007C911997411551056105710509F099C064
:1015F00057968D919D910D90BC91A02D0097A105BE
:10160000B10509F0B0C0C7010E94E708882309F4BA
:101610007FC080E092E0801B910B46018C159D05F8
:1016200008F44C01D7015B964D915C915C9716963E
:101630008D919D910D90BC91A02D0297A109B109AA
:10164000FA01258504C0880F991FAA1FBB1F2A9580
:10165000D2F74685578560897189840F951FA61F2B
:10166000B71F9C01AD01270D311D411D511D2901E1
:101670003A01811432E0930609F07BC080910001A9
:1016800090910101A0910201B0910301841595058B
:10169000A605B70559F48FEF9FEFDC018093000199
:1016A00090930101A0930201B0930301022D9501D3
:1016B000B301A20180911704909118040E94410483
:1016C000882331F19EEFB91AC818D908F70182852D
:1016D0009385A485B585880D991DA11DB11D8287AF
:1016E0009387A487B58755CFF701438954896589C6
:1016F000768982859385A485B585481759076A0739
:101700007B0709F43DCFC7010E945308811138CFF0
:1017100081E090E0D70113969C938E93129780E01E
:1017200007C09E012F5F3F4F0E941307811102C027
:1017300090E079C089819A81AB81BC81F701238DCA
:10174000348DF901278948EF5FEF60E070E02031C8
:1017500021F048EF5FEF6FEF7FE084179507A60752
:10176000B70708F050CFF70186839783A087B1872A
:1017700050CF0115110599F5D7011A964D915D913C
:101780006D917C911D9753968D919D910D90BC917B
:10179000A02D481759076A077B0708F181E00E94CE
:1017A000D304882309F4B4CF409200015092010180
:1017B000609202017092030180910802816080931F
:1017C0000802C801895E9D4FD5019C01280D391D75
:1017D000FC012E173F0759F04D914193FACF41E09C
:1017E000C301B2010E94FE048111EBCF91CF281BEF
:1017F000390BA20EB31E68CFF70183899489A5899E
:10180000B68984179507A607B70738F48481438BF8
:10181000548B658B768B80688483F701848183FD8C
:101820001AC0832D9D810F900F900F900F900F90F5
:10183000DF91CF911F910F91FF90EF90DF90CF90AC
:10184000BF90AF909F908F907F906F905F904F90E0
:101850003F902F90089561E0C7010E94E709882317
:1018600009F456CFDECFCF93DF931F92CDB7DEB70B
:10187000698341E050E0BE016F5F7F4F0E94980A8C
:101880000F90DF91CF910895FC01DB0112968D91AD
:101890009C9113979383828380E291E0918380836C
:1018A00014968C911497848315968C911597858343
:1018B00016964D915D916D917C9119974683578352
:1018C000608771871A964D915D916D917C911D97FE
:1018D00042875387648775871E964D915D916D9100
:1018E0007C91519746875787608B718B52968C916C
:1018F0005297828B53964D915D916D917C91569745
:10190000438B548B658B768B57964D915D916D9182
:101910007C915A97478B508F618F728F5B968D9118
:101920009C91948F838F08950895FC01818D928DF1
:10193000009719F061E00C94E7090895DC015996CD
:10194000ED91FC913097B9F083899489A589B68986
:101950004285538564857585841B950BA60BB70B53
:10196000811520E89207A105B10538F08FEF9FE7B8
:10197000A0E0B0E0089590E080E00895DC01599681
:101980008D919C91009739F0DC01ED91FC910480E0
:10199000F581E02D099490E080E00895CF93DF93E6
:1019A000EC01E98DFA8D309749F481E090E09B835A
:1019B0008A8390E080E0DF91CF91089513821282B4
:1019C000898D9A8D0E94980AE98DFA8D2281338142
:1019D000232B59F7F0CFCF93DF931F92CDB7DEB70C
:1019E0006983DC01ED91FC910280F381E02D41E0FF
:1019F00050E0BE016F5F7F4F09950F90DF91CF914F
:101A000008952F923F924F925F926F927F928F92A2
:101A10009F92AF92BF92CF92DF92EF92FF920F937D
:101A20001F93CF93DF9300D01F92CDB7DEB7FC0199
:101A30008581811118C08FEF9FEF0F900F900F904D
:101A4000DF91CF911F910F91FF90EF90DF90CF909A
:101A5000BF90AF909F908F907F906F905F904F90CE
:101A60003F902F900895848180FFE5CF438954896A
:101A70006589768982859385A485B585312C212C4D
:101A8000481759076A077B0719F022242394312C41
:101A90006F012101CE0101963C01DF011696BB8347
:101AA000AA834114510409F4C5C0F6014285538547
:101AB000648575854A01F1E09F22D6015B968D9180
:101AC0009C915C978A019B01E9E0369527951795D3
:101AD0000795EA95D1F71596EC91E230E9F5FC010E
:101AE000628D738D848D958D600F711F821F931F82
:101AF000A12C22E0B22EA818B9084A145B0408F4FD
:101B00005201F601248126FD04C0A114F2E0BF06B3
:101B100071F40091000110910101209102013091B6
:101B20000301061717072807390709F05EC040E0D0
:101B30000E94FE04882309F47ECFC401895E9D4F74
:101B4000D3019C012A0D3B1DFC012E173F0709F410
:101B50006CC041914D93F9CFDC011496BC90BA94BE
:101B6000B0228114910479F4B1100DC0452B462B9D
:101B7000472B69F5F6018789908DA18DB28D8683FB
:101B80009783A087B187D6015B96ED91FC915C9716
:101B900016966D917D918D919C9119976250710966
:101BA00081099109258504C0660F771F881F991F39
:101BB0002A95D2F70685178520893189600F711F14
:101BC000821F931F6B0D711D811D911D91CFD60139
:101BD00016964D915D916D917C9119972A813B816B
:101BE0000E9413078111CFCF26CF73018501940185
:101BF000AB01BC0180911704909118040E949F03CF
:101C0000882309F418CF6A0C7B1CF6018285938522
:101C1000A485B5858A0D9B1DA11DB11D8287938763
:101C2000A487B5874A185B083CCF281B390B620E86
:101C3000731EEBCF2A94232809F0FDCE898190E012
:101C4000FCCEFC01818D928D009711F00C94010D5A
:101C50008FEF9FEF08950F931F93CF93DF93EC01C6
:101C6000898D9A8D10E000E0009799F00E94010D97
:101C70008C010F3F100769F0898D9A8DFC01428518
:101C800053856485758541505109610971090E9428
:101C90005308C801DF91CF911F910F910895CF9202
:101CA000DF92EF92FF921F93CF93DF93EC0180E2DC
:101CB000689FF0011124E95EFD4F9385917161F0F9
:101CC000842F827449F080E0DF91CF911F91FF90C3
:101CD000EF90DF90CF900895142F6A8B80910001D0
:101CE00090910101A0910201B09103018E879F871D
:101CF000A88BB98BC488D588F12CE12C7601DD2422
:101D0000CC24CF8AD88EE98EFA8E828D938DB0E066
:101D1000A0E0AC01BD014C295D296E297F294F8BC4
:101D2000588F698F7A8F83858871B1F4848D958DF2
:101D3000A68DB78D8B8B9C8BAD8BBE8B81E08D83FD
:101D40001F701C831E821F82188619861A861B86A6
:101D50001C861D8681E0B8CF803109F0B4CF9E018A
:101D60002D5E3F4F8B8D9C8D0E949407882309F434
:101D7000AACF84E0E4CFFB0101900020E9F731977E
:101D8000AF01461B570BDC01ED91FC910280F38102
:101D9000E02D09948F929F92AF92BF92CF92DF92E3
:101DA000EF92FF920F931F93CF93DF93CDB7DEB7E0
:101DB000A1970FB6F894DEBF0FBECDBF6C01990F8F
:101DC000EE08FF08F7FE43C06DE289E194E00E944F
:101DD000BC018C0122273327A9012C193D094E098A
:101DE0005F0919A2CE0181967C019AE0892E912C7F
:101DF000A12CB12CCA01B901A50194010E940719B7
:101E0000605DF70162937F012115310541055105A0
:101E100089F790E080E0309729F0BF0189E194E0F4
:101E20000E94BB0E800F911FA1960FB6F894DEBFE3
:101E30000FBECDBFDF91CF911F910F91FF90EF901B
:101E4000DF90CF90BF90AF909F908F900895A701A3
:101E5000960119A28E010F5D1F4F8AE0C82ED12C6A
:101E6000E12CF12CCA01B901A70196010E940719C2
:101E7000605DF80162938F0121153105410551051F
:101E800089F790E080E0309779F2BF0189E194E032
:101E90000E94BB0EC9CF3F924F925F926F927F928A
:101EA0008F929F92AF92BF92CF92DF92EF92FF926A
:101EB0000F931F93CF93DF93CDB7DEB72B970FB65A
:101EC000F894DEBF0FBECDBF7C01FE013196CE017E
:101ED0000C966F0130E23193E817F907E1F7DA0168
:101EE00030E087E09D91B92E992309F43CC09E32E1
:101EF000F1F48A30C9F480E02B960FB6F894DEBF77
:101F00000FBECDBFDF91CF911F910F91FF90EF904A
:101F1000DF90CF90BF90AF909F908F907F906F9009
:101F20005F904F903F90089538E08AE0DBCFEAEE73
:101F3000F0E04491442321F031969413FACFDBCFA3
:101F40008317C8F24FED490F4E35A8F64FE9490FF8
:101F50004A3118F440EEB42EB90EF601E30FF11D2C
:101F6000B0823F5FBFCF8981803229F2322E8B0150
:101F7000DB015B968D919C915C97F701948F838F29
:101F800016961D921D921D921C921997FB011286A6
:101F9000138614861586F80182859385A485B585F8
:101FA000438954896589768984179507A607B707F9
:101FB00008F04DC025E0B695A795979587952A9589
:101FC000D1F7F82FFF70AF2ED80115968C91823083
:101FD00008F491CFC8010E94010D97FD8CCFF80144
:101FE00082859385A485B5854F96A11DB11D8287F5
:101FF0009387A487B587F0E2AF9EB0011124695E94
:102000007D4F6115710509F476CFDB018C91882332
:1020100041F0853E09F062C0BB2029F0BB24B39497
:10202000BACFB1100EC0F701A28A80910001909141
:102030000101A0910201B091030186879787A08BCF
:10204000B18BDB018C918111E9CFBB24B394832D3B
:102050008271823109F04FCFBB2009F44DC0F701E6
:10206000668577858089918941E00E94FE048823F6
:1020700009F441CFD70152968C91B0E28B9FC001F9
:102080001124895E9D4F009709F435CFFC013A96E3
:1020900026E1DF011D922A95E9F72BE0F601DC012C
:1020A00001900D922A95E1F721E238E2FC01318B93
:1020B000208B40E058E057874687338B228B318F47
:1020C000208F578B468B81E00E94D304882309F42C
:1020D00012CF432DD70152966C910AC04BE050E0CD
:1020E000C6010E94541A892B09F055CF432D6A2D41
:1020F000C7010E944F0E00CFF8018581823009F49C
:10210000FACEC8010E94E708882309F4F4CED8016A
:102110005B96ED91FC915C9716968D909D90AD909D
:10212000BC901997B2E08B1A9108A108B108858577
:1021300004C0880C991CAA1CBB1C8A95D2F7868502
:102140009785A089B189880E991EAA1EBB1E84811D
:1021500024013501480E511C611C711C8414950426
:10216000A604B70409F1E1E04E1A510861087108AC
:1021700081E00E94D304882309F4BDCEE7E1F2E0B8
:10218000119287E194E08E179F07D1F740920001EA
:102190005092010160920201709203018091080245
:1021A000816080930802DACFD8015B96ED91FC91B3
:1021B000258580E092E0A0E0B0E004C0880F991F80
:1021C000AA1FBB1F2A95D2F7F80143895489658954
:1021D0007689840F951FA61FB71F838B948BA58BC1
:1021E000B68BD70152961C9287E192E04FCFEF92C7
:1021F000FF920F931F93CF93DF93EC017B018A0132
:102200001B821A8288EE93E0A0E0B0E08C839D836D
:10221000AE83BF838CE291E0998388838DE190E067
:102220000E942F199A8F898F009779F02DE1F7017D
:10223000DC0101900D922A95E1F74CE050E0B801E5
:10224000CE010C960E94731A188EDF91CF911F91C8
:102250000F91FF90EF900895EF92FF920F931F93CD
:10226000CF93DF93CDB7DEB7C755D1090FB6F8943A
:10227000DEBF0FBECDBF8C011C821B8280E2E82E28
:1022800081E0F82EFA82E9821E82CE0101960E9438
:10229000FF07BE016F5F7F4FCE01CB960E94440CBB
:1022A00019A218A2FF8EEE8E1BA221968FAD219748
:1022B000811121C0F8011382128288EE93E0A0E020
:1022C000B0E084839583A683B7838CE291E0918309
:1022D0008083128E118E1486C801C95ADF4F0FB643
:1022E000F894DEBF0FBECDBFDF91CF911F910F914C
:1022F000FF90EF90089527E14AE351E0BE01655C4D
:102300007F4FCE014E960E944B0F882399F2CE014B
:10231000CB960E948B0A49A95AA96BA97CA9CE0128
:102320004E960E945308BE01625E7F4FCE01019619
:102330000E94440C4AE351E0BE016F5F7F4FC80129
:102340000E94F710C9CF4F925F926F927F92AF9227
:10235000BF92CF92DF92EF92FF920F931F93CF9392
:10236000DF93CDB7DEB76B970FB6F894DEBF0FBE25
:10237000CDBF89E194E00E948401181619060CF083
:1023800055C089E194E00E9462018F3509F082C056
:1023900064E070E082E092E00E94A6028091020276
:1023A000813309F458C0823309F46BC0803309F0DB
:1023B00058C067E471E08EEC91E00E946C1AEEEC7C
:1023C000F1E0DF010D900020E9F7139780910402FE
:1023D0008C9301900020E9F7329780910502808369
:1023E000CE0101960E942C11CE0101960E94EF00B1
:1023F0006EEC71E081E095E00E94BB0E6CE671E04E
:1024000081E095E00E94BB0E80911A0590911B051A
:10241000009761F00E948B0A80911A0590911B052C
:102420000E94CB1910921B0510921A056B960FB6DD
:10243000F894DEBF0FBECDBFDF91CF911F910F91FA
:10244000FF90EF90DF90CF90BF90AF907F906F9014
:102450005F904F9008956FE671E08EEC91E00E94DE
:102460006C1A80910302813379F0823381F062EA41
:1024700071E0803309F0A3CF8EEC91E00E94611AE5
:102480009ECF6AE871E0E9CF6FEA71E0F5CF60ECCA
:1024900071E0F2CF803609F05FC065E070E08BEF4D
:1024A00091E00E94A6028091FB01282F2053330B5C
:1024B00069018BEFA82E81E0B82E93E0E92EF12C74
:1024C00001E010E03FEFA31AB30A8FEFE816F80619
:1024D000A1F1B7010F2C000C880B990B0E945A1523
:1024E0009B01AC0160E070E080E291E40E94101773
:1024F0002B013C01F50160816053770B072E000C26
:10250000880B990B0E945A15A30192010E94951500
:102510002B013C01B801110F880B990B0E945A1531
:102520009B01AC01C301B2010E946E160E94DA1633
:102530008B01F1E0EF1AF108C5CF84E0809301022E
:102540006EE589E194E00E94BC01C6010E94CA0EBA
:10255000C8010E94CA0E6ACF89E194E00E948401FA
:10256000892B09F463CF89E194E00E946201809392
:102570000102F2CF0E94900181110C94A3110895E1
:102580001F920F920FB60F9211242F933F934F93E8
:102590005F936F937F938F939F93AF93BF93EF93CB
:1025A000FF9389E194E00E949A01FF91EF91BF911E
:1025B000AF919F918F917F916F915F914F913F91DB
:1025C0002F910F900FBE0F901F9018951F920F9292
:1025D0000FB60F9211242F938F939F93EF93FF9336
:1025E000E0912904F0912A048081E0912F04F09178
:1025F000300482FD1BC09081809132048F5F8F7305
:1026000020913304821741F0E0913204F0E0E75E5C
:10261000FB4F958F80933204FF91EF919F918F91A3
:102620002F910F900FBE0F901F9018958081F4CFBF
:102630001F920F920FB60F9211242F933F938F93F7
:102640009F93AF93BF9380910E0290910F02A09140
:102650001002B091110230910D0223E0230F2D37AB
:1026600058F50196A11DB11D20930D0280930E0215
:1026700090930F02A0931002B09311028091120266
:1026800090911302A0911402B09115020196A11D20
:10269000B11D8093120290931302A0931402B09381
:1026A0001502BF91AF919F918F913F912F910F9004
:1026B0000FBE0F901F90189526E8230F0296A11DBC
:1026C000B11DD2CFE9E1F4E01382128288EE93E0EB
:1026D000A0E0B0E084839583A683B7832EE031E049
:1026E0003183208325EC30E03587248724EC30E0EB
:1026F0003787268720EC30E0318B208B21EC30E0CF
:10270000338B228B22EC30E0358B248B26EC30E0AF
:10271000378B268B118E128E138E148EE6EBF4E01F
:1027200020E520831182E8EBF4E015821682118601
:10273000138642E050E060E070E04487558766878A
:10274000778713A215A614A620E231E033A722A7AB
:1027500017A6E1E0F5E01382128284839583A683B5
:10276000B7838CE291E091838083128E118E148660
:102770000895789484B5826084BD84B5816084BDF9
:1027800085B5826085BD85B5816085BD80916E000F
:10279000816080936E001092810080918100826040
:1027A000809381008091810081608093810080917D
:1027B00080008160809380008091B100846080936C
:1027C000B1008091B00081608093B00080917A0068
:1027D000846080937A0080917A00826080937A008E
:1027E00080917A00816080937A0080917A0080687D
:1027F00080937A001092C1008091E704882321F031
:1028000082EE94E00E948B0A1092C3041092C104DD
:102810001092BE041092BD048AE08093BC040E9412
:102820009A02EB018091BC040E94D00061E080918B
:10283000BC040E9429021FB7F894809116028111EE
:1028400024C0ECE2F1E08491E0E4F1E09491E82F1F
:10285000F0E0EE0FFF1FE85EFE4FA591B491EC9102
:10286000E92321F461E08AE00E9429028AE00E94C3
:10287000D0008CB580618CBD8CB580648CBD8DE042
:102880000E94D0008BE00E94D000809116028F5FE2
:10289000809316021FBF82E58093B6041092B7049E
:1028A0008091B6049091B7040E9429031AE08FEF3B
:1028B0000E9404031150D9F788EB94E00E942C0386
:1028C00020E030E0A90160E088EB94E00E94420340
:1028D000182F8093C204813009F46EC00E949A02BE
:1028E0006C1B7D0B613D774058F381E08093BD0404
:1028F00088EB94E00E94F902E0912904F0912A0407
:1029000082E08083E0912504F09126041082E0911A
:102910002704F09128048FEC808310923104E09119
:102920002D04F0912E0486E08083E0912B04F09139
:102930002C04808180618083E0912B04F0912C0431
:10294000808188608083E0912B04F0912C04808149
:1029500080688083E0912B04F0912C0480818F7D2E
:1029600080830E9475024B015C0184E6C82ED12C45
:10297000E12CF12C0E947502681979098A099B09DA
:10298000683E734081059105A8F321E0C21AD10881
:10299000E108F10888EE880E83E0981EA11CB11CA6
:1029A000C114D104E104F10429F70E9490018823A5
:1029B000C1F20E94A311D5CF2AEA31E040E050E0F5
:1029C00068E088EB94E00E94420382FF2AC01093E3
:1029D000C3048091C304C12CD12C7601823029F428
:1029E000C12CD12CE12C90E4F92E20E030E0A9019B
:1029F00067E388EB94E00E944203A701960169E235
:102A000088EB94E00E9442038093C2048823C1F0C3
:102A10000E949A026C1B7D0B613D774030F388E089
:102A200065CF14E00E940B038093C2041150D1F7CC
:102A30008A3A11F082E05ACF82E08093C304C9CF72
:102A40008091C3048230D1F420E030E0A9016AE330
:102A500088EB94E00E944203882311F086E046CF81
:102A60000E940B03807C803C19F483E08093C304B4
:102A70000E940B030E940B030E940B0388EB94E05F
:102A80000E94F90280E58093B6041092B70481E0B9
:102A90000E944805882329F082EE94E00E94FF07F7
:102AA0002BCF80E00E944805882309F425CFF4CF7E
:102AB000E89409C097FB3EF49095809570956195D8
:102AC0007F4F8F4F9F4F9923A9F0F92F96E9BB278E
:102AD0009395F695879577956795B795F111F8CF0A
:102AE000FAF4BB0F11F460FF1BC06F5F7F4F8F4F75
:102AF0009F4F16C0882311F096E911C0772321F06B
:102B00009EE8872F762F05C0662371F096E8862F02
:102B100070E060E02AF09A95660F771F881FDAF759
:102B2000880F9695879597F908950E94A8150C949B
:102B300019160E940B1638F00E94121620F09523E9
:102B400011F00C9402160C94081611240C944D16D6
:102B50000E942A1670F3959FC1F3950F50E0551F00
:102B6000629FF001729FBB27F00DB11D639FAA27E2
:102B7000F00DB11DAA1F649F6627B00DA11D661F31
:102B8000829F2227B00DA11D621F739FB00DA11D52
:102B9000621F839FA00D611D221F749F3327A00D0C
:102BA000611D231F849F600D211D822F762F6A2FA8
:102BB00011249F5750409AF0F1F088234AF0EE0F0D
:102BC000FF1FBB1F661F771F881F91505040A9F73A
:102BD0009E3F510580F00C9402160C944D165F3FF9
:102BE000E4F3983ED4F3869577956795B795F79576
:102BF000E7959F5FC1F7FE2B880F911D96958795EE
:102C000097F9089597F99F6780E870E060E008956C
:102C10009FEF80EC089500240A94161617061806F4
:102C20000906089500240A941216130614060506D0
:102C30000895092E0394000C11F4882352F0BB0F61
:102C400040F4BF2B11F460FF04C06F5F7F4F8F4FC4
:102C50009F4F089557FD9058440F551F59F05F3FFF
:102C600071F04795880F97FB991F61F09F3F79F0AE
:102C700087950895121613061406551FF2CF469530
:102C8000F1DF08C0161617061806991FF1CF8695B2
:102C90007105610508940895E894BB276627772796
:102CA000CB0197F908950E945E16A59F900DB49FE1
:102CB000900DA49F800D911D11240895A29FB00135
:102CC000B39FC001A39F700D811D1124911DB29F60
:102CD000700D811D1124911D08955058BB27AA27FE
:102CE0000E9485160C9419160E940B1638F00E944B
:102CF000121620F039F49F3F19F426F40C940816AC
:102D00000EF4E095E7FB0C940216E92F0E942A16B8
:102D100058F3BA17620773078407950720F079F410
:102D2000A6F50C944C160EF4E0950B2EBA2FA02DA0
:102D30000B01B90190010C01CA01A0011124FF2768
:102D4000591B99F0593F50F4503E68F11A16F04063
:102D5000A22F232F342F4427585FF3CF4695379562
:102D60002795A795F0405395C9F77EF41F16BA0B27
:102D7000620B730B840BBAF09150A1F0FF0FBB1FD5
:102D8000661F771F881FC2F70EC0BA0F621F731F1E
:102D9000841F48F4879577956795B795F7959E3F7B
:102DA00008F0B0CF9395880F08F09927EE0F97950C
:102DB000879508950E94E1166894B1110C944D1600
:102DC00008950E94321688F09F5798F0B92F9927DE
:102DD000B751B0F0E1F0660F771F881F991F1AF006
:102DE000BA95C9F714C0B13091F00E944C16B1E009
:102DF00008950C944C16672F782F8827B85F39F008
:102E0000B93FCCF3869577956795B395D9F73EF49E
:102E100090958095709561957F4F8F4F9F4F089546
:102E2000FA01EE0FFF1F309621053105A1F1611562
:102E3000710561F48038BFE39B0749F168949038CD
:102E4000810561F08038BFEF9B0741F099234AF577
:102E5000FF3FE1053105210519F1E8940894E79554
:102E6000D901AA2329F4AB2FBE2FF85FD0F310C0ED
:102E7000FF5F70F4A695E0F7F73950F019F0FF3ACC
:102E800038F49F779F930DD00F9007FC90580895CA
:102E900046F00C94081660E070E080E89FE3089527
:102EA0004FE79F775F934F933F932F930E940B18A9
:102EB0002F913F914F915F910E9495150C94681747
:102EC00029F416F00C9402160C944C160C94081667
:102ED0000E943216A8F39638A0F707F80F92E894EC
:102EE0002BE33AEA48EB5FE70E94AB150F920F9293
:102EF0000F924DB75EB70F920E945318E8E6F0E0CC
:102F00000E949A174F915F91EF91FF91E595EE1F07
:102F1000FF1F49F0FE57E0684427EE0F441FFA9563
:102F2000E1F74195550B0E94CD170F9007FE0C94C9
:102F3000C1170895DF93CF931F930F93FF92EF92E2
:102F4000DF927B018C01689406C0DA2EEF010E94AB
:102F5000A815FE01E894A5912591359145915591CB
:102F6000A6F3EF010E948516FE019701A801DA94ED
:102F700069F7DF90EF90FF900F911F91CF91DF9154
:102F800008959B01AC0160E070E080E89FE30C9441
:102F900087180C9402160C94F9180E943216D8F374
:102FA0009923C9F3940F511DA3F39150504094F00D
:102FB00059F0882332F0660F771F881F91505040D8
:102FC000C1F79E3F51052CF7880F911D9695879567
:102FD00097F908955F3FACF0983E9CF0BB2786952B
:102FE00077956795B79508F4B1609395C1F7BB0FD6
:102FF00058F711F460FFE8CF6F5F7F4F8F4F9F4FFF
:10300000E3CF0C944D1616F00C94F9180C94081696
:1030100068940C9402160E943216A8F39923C1F307
:10302000AEF3DF93CF931F930F93FF92C92FDD274A
:1030300088232AF02197660F771F881FDAF720E090
:1030400030E040E85FEB9FE3883920F0803E38F0C5
:1030500021968F770E946E16E0E9F0E004C00E948E
:103060006E16EDEBF0E00E949A178B01BE01EC01A9
:10307000FB2E6F5771097595771F880B990B0E946E
:103080005A1528E132E741E35FE30E94A815AF2D0E
:103090009801AE01FF900F911F91CF91DF910E9497
:1030A00085160C941916FA01DC01AA0FBB1F9B01AF
:1030B000AC01BF5728F4222733274427507820C07B
:1030C000B75190F4AB2F0024469537952795011CF6
:1030D000A395D2F3002071F0220F331F441FB39544
:1030E000DAF30ED00C946D1661307105A0E88A07F2
:1030F000B94630F49B01AC01662777278827907882
:10310000309621F0208331834283538308950E94B7
:103110009B180C9419160E94121658F00E940B1658
:1031200040F029F45F3F29F00C94021651110C94E1
:103130004D160C9408160E942A1668F39923B1F3D1
:10314000552391F3951B550BBB27AA2762177307CD
:10315000840738F09F5F5F4F220F331F441FAA1F61
:10316000A9F335D00E2E3AF0E0E832D0915050401D
:10317000E695001CCAF72BD0FE2F29D0660F771FCB
:10318000881FBB1F261737074807AB07B0E809F0B1
:10319000BB0B802DBF01FF2793585F4F3AF09E3F36
:1031A000510578F00C9402160C944D165F3FE4F331
:1031B000983ED4F3869577956795B795F7959F5F79
:1031C000C9F7880F911D9695879597F90895E1E0C5
:1031D000660F771F881FBB1F621773078407BA0724
:1031E00020F0621B730B840BBA0BEE1F88F7E0957F
:1031F00008959F3F31F0915020F48795779567951A
:10320000B795880F911D9695879597F90895A1E236
:103210001A2EAA1BBB1BFD010DC0AA1FBB1FEE1F50
:10322000FF1FA217B307E407F50720F0A21BB30B9B
:10323000E40BF50B661F771F881F991F1A9469F717
:1032400060957095809590959B01AC01BD01CF0173
:103250000895EE0FFF1F0590F491E02D09940F9350
:103260001F93CF93DF938230910510F482E090E0BA
:10327000E0911E05F0911F0530E020E0B0E0A0E0F5
:10328000309799F42115310509F44AC0281B390BF0
:1032900024303105D8F58A819B816115710589F14A
:1032A000FB0193838283FE0111C040815181028121
:1032B000138148175907E0F04817590799F41097F8
:1032C00061F012960C93129713961C933296CF01CD
:1032D000DF91CF911F910F91089500931E051093D8
:1032E0001F05F4CF2115310551F04217530738F06F
:1032F000A901DB019A01BD01DF01F801C1CFEF0196
:10330000F9CF90931F0580931E05CDCFFE01E20FEC
:10331000F31F819391932250310939832883D7CFAA
:1033200020911C0530911D05232B41F420910601AD
:103330003091070130931D0520931C052091040155
:10334000309105012115310541F42DB73EB740916B
:10335000080150910901241B350BE0911C05F091E7
:103360001D05E217F307A0F42E1B3F0B28173907A2
:1033700078F0AC014E5F5F4F2417350748F04E0FD1
:103380005F1F50931D0540931C05819391939FCF20
:10339000F0E0E0E09CCFCF93DF930097E9F0FC01F1
:1033A000329713821282A0911E05B0911F05ED0184
:1033B00030E020E01097A1F420813181820F931F2B
:1033C00020911C0530911D052817390709F061C0AF
:1033D000F0931D05E0931C05DF91CF910895EA015C
:1033E000CE17DF07E8F54A815B819E014115510543
:1033F000B1F7E901FB83EA8349915991C40FD51FC5
:10340000EC17FD0761F4808191810296840F951F6E
:10341000E90199838883828193819B838A83F0E089
:10342000E0E012968D919C9113970097B9F52D913C
:103430003C911197CD010296820F931F20911C059C
:1034400030911D052817390739F6309751F510923C
:103450001F0510921E05B0931D05A0931C05BCCF3F
:10346000D383C28340815181840F951FC817D90728
:1034700061F44E5F5F4F88819981480F591F5183D6
:1034800040838A819B81938382832115310509F0D2
:10349000B0CFF0931F05E0931E059ECFFD01DC0128
:1034A000C0CF13821282D7CFFB01DC0104C08D9103
:1034B0000190801921F441505040C8F7881B990BA6
:1034C0000895FB01DC010D900020E9F711970190B0
:1034D0000D920020E1F70895FB01DC0101900D92AF
:1034E0000020E1F70895FB01DC014150504048F015
:1034F00001900D920020C9F701C01D92415050402B
:08350000E0F70895F894FFCFF5
:10350800FFFFFFFF00002005800000000000BC0155
:1035180026015301090284016201760100000000BE
:10352800330C26012D0A940C00000000EB0CCE0C85
:10353800BE0C950C9E0C210E2B0E52656769737498
:10354800726F2E74787400536520696E67726573A4
:103558006F206C6120636C6176652064656C206106
:103568007369656E746F204E202E2E000D0A00536D
:10357800652073656E7461726F6E20656E20656C70
:1035880020617369656E746F2000536520706172E5
:1035980061726F6E2064656C20617369656E746F0B
:1035A80020006F63757061646F204E202E2E0073AB
:1035B800696E20617369676E6172204E202E2E003D
:0E35C800617369676E61646F204E202E2E00C5
:00000001FF
