:100000000C94A3000C945A090C9433090C94CB0063
:100010000C94CB000C94CB000C94CB000C94CB0034
:100020000C94CB000C94CB000C94CB000C94CB0024
:100030000C94CB000C94CB000C94CB000C94CB0014
:100040000C94E9080C94CB000C94B7080C9491081C
:100050000C94CB000C94CB000C94CB000C94CB00F4
:100060000C9481090C94CB0007634236B79BD8A748
:100070001A39685618AEBAAB558C1D3CB7CC5763CD
:10008000BD6DEDFD753EF6177231BF000000803F7B
:1000900008000000BE922449123EABAAAA2ABECD97
:1000A000CCCC4C3E00000080BEABAAAAAA3E000009
:1000B0000000BF000000803F000000000008417801
:1000C000D3BB4387D1133D190E3CC3BD4282AD2B38
:1000D0003E68EC8276BED98FE1A93E4C80EFFFBE30
:1000E00001C4FF7F3F00000000000000000023006B
:1000F0002600290000000000240027002A0000003C
:100100000000250028002B00040404040404040457
:1001100002020202020203030303030301020408B2
:100120001020408001020408102001020408102061
:1001300000000008000201000003040700000000A6
:1001400000000000A00A11241FBECFEFD8E0DEBFE0
:10015000CDBF23E0A2E9B1E001C01D92A338B207F0
:10016000E1F711E0A0E0B1E0E2E9F6E202C00590BB
:100170000D92A239B107D9F710E0C3EAD0E004C06C
:100180002197FE010E944113C23AD107C9F70E948C
:10019000060B0C9447130C9400000895089581E019
:1001A000809306020895DC01ED91FC910190F081AD
:1001B000E02D0994AF92BF92CF92DF92EF92FF921F
:1001C0000F931F93CF93DF936C017B018B01040F7F
:1001D000151FEB015E01AE18BF08C017D10759F01B
:1001E0006991D601ED91FC910190F081E02DC6015D
:1001F0000995892B79F7C501DF91CF911F910F9157
:10020000FF90EF90DF90CF90BF90AF900895FC01EA
:10021000538D448D252F30E0842F90E0821B930B6B
:10022000541710F0CF96089501970895FC01918D11
:10023000828D981761F0A28DAE0FBF2FB11D5D9614
:100240008C91928D9F5F9F73928F90E008958FEFB6
:100250009FEF0895FC01918D828D981731F0828D6A
:10026000E80FF11D858D90E008958FEF9FEF0895C1
:10027000FC01918D228D892F90E0805C9F4F821B25
:1002800091098F73992708958EEB92E00E943801AF
:1002900021E0892B09F420E0822F089580E090E08E
:1002A000892B29F00E94440181110C9400000895CB
:1002B000FC01A48DA80FB92FB11DA35ABF4F2C91DB
:1002C000848D90E001968F739927848FA689B789D2
:1002D0002C93A089B1898C91837080648C93938DC9
:1002E000848D981306C00288F389E02D80818F7D6C
:1002F00080830895EF92FF920F931F93CF93DF9324
:10030000EC0181E0888F9B8D8C8D98131AC0E88951
:10031000F989808185FF15C09FB7F894EE89FF8920
:100320006083E889F98980818370806480839FBFBE
:1003300081E090E0DF91CF911F910F91FF90EF90BE
:100340000895F62E0B8D10E00F5F1F4F0F731127CE
:10035000E02E8C8D8E110CC00FB607FCFACFE88909
:10036000F989808185FFF5CFCE010E945801F1CF38
:10037000EB8DEC0FFD2FF11DE35AFF4FF0829FB77D
:10038000F8940B8FEA89FB8980818062CFCFCF936D
:10039000DF93EC01888D8823B9F0AA89BB89E889AD
:1003A000F9898C9185FD03C0808186FD0DC00FB653
:1003B00007FCF7CF8C9185FFF2CF808185FFEDCFD1
:1003C000CE010E945801E9CFDF91CF91089583308B
:1003D00081F028F4813099F08230A9F008958730B7
:1003E000A9F08830C9F08430B1F4809180008F7D0D
:1003F00003C0809180008F7780938000089584B53A
:100400008F7784BD089584B58F7DFBCF8091B00038
:100410008F778093B00008958091B0008F7DF9CFE1
:100420001F93CF93DF93282F30E0F901E05DFE4F5B
:100430008491F901E45EFE4FD491F901E85FFE4F2B
:10044000C491CC23A9F0162F81110E94E701EC2F53
:10045000F0E0EE0FFF1FE250FF4FA591B4918FB770
:10046000F894EC91111108C0D095DE23DC938FBF76
:10047000DF91CF911F910895DE2BF8CFCF93DF93BB
:1004800090E0FC01E45EFE4F2491885F9E4FFC01EA
:1004900084918823D1F090E0880F991FFC01EC50E3
:1004A000FF4FA591B491FC01E250FF4FC591D4914B
:1004B000623071F49FB7F8943C91822F809583232A
:1004C0008C93E8812E2B28839FBFDF91CF910895D5
:1004D0008FB7F894EC912E2B2C938FBFF6CF3FB7AC
:1004E000F8948091F7019091F801A091F901B091F1
:1004F000FA0126B5A89B05C02F3F19F00196A11D52
:10050000B11D3FBFBA2FA92F982F8827BC01CD015D
:10051000620F711D811D911D42E0660F771F881FBC
:10052000991F4A95D1F708958F929F92AF92BF92EB
:10053000CF92DF92EF92FF924B015C010E946F021B
:100540006B017C010E946F026C197D098E099F0965
:10055000683E734081059105A8F321E0821A910855
:10056000A108B10888EEC80E83E0D81EE11CF11C7A
:1005700081149104A104B10429F7FF90EF90DF905A
:10058000CF90BF90AF909F908F9008950895209145
:10059000D301260F3327331F21323105ECF420918C
:1005A0009402FC0190E080E0243069F082E008953C
:1005B000A091D3012191AC014D545E4FA40FB52FF2
:1005C000B11D2C930196861798F38091D301680F83
:1005D0006093D30180E0089581E008951092940221
:1005E00081E08093930210926E0261E082E10E94AA
:1005F000100261E083E10E941002E9EBF0E08081EB
:100600008E7F808380818D7F808388E48093B80093
:1006100085E48093BC000895CF93DF9391E090939D
:10062000B2018823B9F0C091B800D091BA0080918E
:10063000BC008A7B8093BC0060E082E10E941002D3
:1006400060E083E10E9410020E94EE02D093BA00A3
:10065000C093B800DF91CF9108958F929F92AF928F
:10066000BF92CF92DF92EF92FF920F931F93CF939F
:10067000DF93D091BD02D13208F0D7C0182FC091BE
:10068000BC020E946F026B017C0180919402811177
:100690006BC082E080939402109393028FEF80935B
:1006A000920210929102D0939002ACE9B2E0E0E79E
:1006B000F2E080E0D81391C010926F0280916F0237
:1006C000CC0FC82BC0936F0280916E02813009F06D
:1006D00088C010926E020E946F026B017C018091B3
:1006E0006F028093BB008091960290919702A09137
:1006F0009802B0919902892B8A2B8B2BA1F00E9432
:100700006F02009196021091970220919802309109
:1007100099026C197D098E099F090617170728078A
:10072000390708F442C08091BC0083FDD8CF85EC26
:100730008093BC000E946F026B017C018091940247
:10074000823009F450C0809192028F3F09F46FC04B
:1007500080919202803209F46CC0809192028033C1
:1007600009F469C084E026C08091960290919702B6
:10077000A0919802B0919902892B8A2B8B2B09F4B6
:1007800084CF0E946F028090960290909702A09072
:100790009802B09099026C197D098E099F098616FE
:1007A0009706A806B90608F070CF809195020E94BE
:1007B0000C0385E010929B021092BD0210929A02E7
:1007C000DF91CF911F910F91FF90EF90DF90CF902D
:1007D000BF90AF909F908F9008959D9191938F5F60
:1007E00069CF85EEA5CF8091960290919702A09156
:1007F0009802B0919902892B8A2B8B2B09F49ECFFA
:100800000E946F0200919602109197022091980227
:10081000309199026C197D098E099F0906171707F7
:100820002807390708F08ACFC0CF81E0C3CF80E026
:10083000C1CF82E0BFCF83E0BDCF0895E0916D02CC
:1008400080916C02E81730F4F0E0EE56FE4F8081A4
:1008500090E008958FEF9FEF089590916D02809141
:100860006C022FEF3FEF981748F4E92FF0E0EE56B7
:10087000FE4F208130E09F5F90936D02C901089583
:1008800080916C0290916D02891B990B0895CF9213
:10089000DF92EF92FF920F931F93CF93DF937C0130
:1008A000CB018A0120919A02222389F0EB016B018E
:1008B000C40ED51ECC15DD0569F06991D701ED9107
:1008C000FC910190F081E02DC7010995F3CF642FD1
:1008D0000E94C702C801DF91CF911F910F91FF9035
:1008E000EF90DF90CF900895CF93DF931F92CDB715
:1008F000DEB7698320919A022223F9F02091BD028C
:10090000203258F021E030E0FC013383228390E074
:1009100080E00F90DF91CF91089580919B02E82FA6
:10092000F0E0E456FD4F998190838F5F80939B02A6
:100930008093BD0281E090E0ECCF61E0CE010196B2
:100940000E94C702F7CFFC01848191E090939A0244
:100950008093BC0210929B021092BD028FE693E03E
:100960000E94740481E00C942D03CF93DF93EC017B
:100970006A838E819F81288131E030939A0220938F
:10098000BC0210929B021092BD02DC01ED91FC9121
:100990000190F081E02D099581E00E942D0390E007
:1009A0009D838C83DF91CF910895CF93DF93EC01EA
:1009B00010926D0210926C0210929B021092BD0276
:1009C0000E94EE028DEC90E09093690280936802A1
:1009D0008EEC90E090936B0280936A02888191E0A4
:1009E00090939A028093BC0281E00E942D038111B2
:1009F00008C06FEFCE010E94B50481E0DF91CF9176
:100A0000089580E0FBCF1F93CF93DF93182FD62F4D
:100A1000C42F6FE58EEB92E00E94D300612F8EEB26
:100A200092E00E94D3006D2F8EEB92E00E94D300E3
:100A300081E08C0F6AE00E941313D82F60E3680FE7
:100A40008EEB92E00E94D30061E36C0F86EFD89F9B
:100A5000600D11248EEB92E0DF91CF911F910C94E9
:100A6000D300089590E080E008958F929F92AF9216
:100A7000BF920F931F93CF93DF93CDB7DEB7A197AC
:100A80000FB6F894DEBF0FBECDBF19A2423008F4F6
:100A90004AE08E010F5D1F4F842E912CB12CA12CAA
:100AA000A50194010E941F13E62FB901CA01EA3083
:100AB00044F5E05DD801EE938D01232B242B252BEB
:100AC00079F790E080E0109769F0FD010190002037
:100AD000E9F73197AF014A1B5B0BBD018BE593E052
:100AE0000E94DA00A1960FB6F894DEBF0FBECDBF0C
:100AF000DF91CF911F910F91BF90AF909F908F90FA
:100B00000895E95CD7CFFC0101900020E9F7319707
:100B1000AF01481B590BBC018BE593E00C94DA0044
:100B2000CF93DF93D82FC8E06D2F661F6627661F0F
:100B30008AE00E941002DD0F61E08CE00E9410024A
:100B400060E08CE00E941002C15071F7DF91CF91FC
:100B50000895CF93DF93D82FC92F60E08CE00E94D7
:100B600010028D2F0E9490058C2F0E94900561E04D
:100B70008BE00E94100260E08BE0DF91CF910C943B
:100B800010020F931F93CF93DF93EC01042F69871B
:100B900011E01F838E81880F9D819460892B2885A9
:100BA00098E0299F90011124822B607F682BCE0151
:100BB0000E94A3041F826E81660F888528E0829FB1
:100BC000C0011124682B8D81682B8985807F682B5B
:100BD000CE010E94A304011131C08FE890E001977B
:100BE000F1F71F838D8184606E81660F682B888585
:100BF00028E0829FC0011124682B898520E1829F13
:100C0000C0011124682BCE010E94A3041F826E81B3
:100C1000660F888528E0829FC0011124682B8D8192
:100C2000682B898520E1829FC0011124682BCE01A9
:100C3000DF91CF911F910F910C94A304DF91CF917D
:100C40001F910F910895109260031092610361113A
:100C500060E4680F606840E08BE593E00E94C105A6
:100C60008FE890E00197F1F70895EBE5F3E0158246
:100C7000168240E061E0CF010E94C1058BEF98E150
:100C80000197F1F7089521E0FC012583168240E0E9
:100C90000E94C1058FE990E00197F1F781E090E0B3
:100CA00008958F929F92AF92BF92CF92DF92EF9270
:100CB000FF920F931F93CF93DF93EC0118810E9453
:100CC0006F026B017C0180919402811164C081E00C
:100CD00080939402809393029FEF909392021092DC
:100CE00091021092900280936F0280916F02110F17
:100CF000182B10936F0280916E02813009F089C029
:100D000010926E020E946F026B017C0180916F0253
:100D10008093BB008091960290919702A0919802D7
:100D2000B0919902892B8A2B8B2BA1F00E946F0224
:100D300000919602109197022091980230919902A9
:100D40006C197D098E099F090617170728073907AF
:100D500008F442C08091BC0083FDD8CF85EC80931D
:100D6000BC000E946F026B017C0180919402813073
:100D700009F451C08091910281116FC0809191025C
:100D8000A0E7B2E0E2E9F1E090E0981751F12D918F
:100D900021939F5FFACF8091960290919702A09144
:100DA0009802B0919902892B8A2B8B2B09F48BCF57
:100DB0000E946F028090960290909702A0909802F5
:100DC000B09099026C197D098E099F0986169706C5
:100DD000A806B90608F077CF809195020E940C030F
:100DE00080E010926D0280936C028130C1F182E844
:100DF00090E09D838C838981DF91CF911F910F912A
:100E0000FF90EF90DF90CF90BF90AF909F908F902A
:100E1000089585EEA4CF8091960290919702A091BB
:100E20009802B0919902892B8A2B8B2B09F49DCFC4
:100E30000E946F02009196021091970220919802F1
:100E4000309199026C197D098E099F0906171707C1
:100E50002807390708F089CFBFCF81E091CF8E8175
:100E60009F81DC01ED91FC910284F385E02D0995D1
:100E70008983C2CFAF92BF92CF92DF92EF92FF925F
:100E80000F931F93CF93DF93109207020CE0C1E002
:100E9000D0E010910702183018F58BE793E00E941C
:100EA000510620910702029FF0011124E85FFD4FD7
:100EB00080917C0390E0AE0102C0440F551F1A954B
:100EC000E2F78423952341E050E01816190614F444
:100ED00050E040E0518740872F5F20930702D9CF31
:100EE000109207029CE0C92EC5E3D1E001E211E0B7
:100EF0002DE0E22E21E0F22E38E0B32E80910702A1
:100F0000883008F03AC0C89EF0011124E85FFD4F18
:100F100026813781232BA1F420853185232B81F075
:100F200024813581232B61F461E085E00E94100269
:100F3000B0920702809107028F5F80930702DECF95
:100F40008730C1F7FE018491F801A490F701D49095
:100F5000DD2081F381110E94E701ED2DF0E0EE0F1D
:100F6000FF1FE651FF4FA591B4918C91A82211F378
:100F700060E085E00E941002DDCF10920702CCE015
:100F800001E010E040910702483008F087C0C49F9C
:100F9000F0011124E85FFD4F86819781892BB1F024
:100FA00080859185892B09F454C082859385892B8E
:100FB00069F460E381E30E940305E0910702CE9F9C
:100FC000F0011124E85FFD4F13870287409107026B
:100FD000C49FF0011124E85FFD4F86819781892B22
:100FE000B1F480859185892B91F084819581892B3D
:100FF00009F042C061E381E30E940305E09107022A
:10100000CE9FF0011124E85FFD4F138702874091C6
:101010000702C49FF0011124E85FFD4F8085918590
:10102000892B89F084819581892B69F062E381E3C2
:101030000E940305E0910702CE9FF0011124E85FB2
:10104000FD4F13870287809107028F5F809307020D
:1010500099CF82859385892B09F4B8CF60E382E329
:101060000E940305E0910702CE9FF0011124E85F82
:10107000FD4F13861286AACF82859385892B39F27C
:1010800061E382E30E940305E0910702CE9FF00135
:101090001124E85FFD4F13861286B9CFDF91CF91FF
:1010A0001F910F91FF90EF90DF90CF90BF90AF9086
:1010B000089585ED8093BC008091960290919702EF
:1010C000A0919802B09199020796A11DB11D23E04D
:1010D000B695A795979587952A95D1F72091BC004D
:1010E00024FD03C0109294020895409196025091FD
:1010F00097026091980270919902452B462B472BDD
:1011000069F30097A105B10541F025E32A95F1F7B0
:1011100000000197A109B109E1CF809195020C94DB
:101120000C031F920F920FB60F9211242F933F932F
:101130004F935F936F937F938F939F93AF93BF93DF
:10114000EF93FF938EEB92E00E945801FF91EF9195
:10115000BF91AF919F918F917F916F915F914F91CF
:101160003F912F910F900FBE0F901F9018951F92D7
:101170000F920FB60F9211242F938F939F93EF939B
:10118000FF93E091CE02F091CF028081E091D402F2
:10119000F091D50282FD1BC090818091D7028F5FB4
:1011A0008F732091D802821741F0E091D702F0E0CE
:1011B000E254FD4F958F8093D702FF91EF919F915D
:1011C0008F912F910F900FBE0F901F9018958081D7
:1011D000F4CF1F920F920FB60F9211242F933F93CB
:1011E0008F939F93AF93BF938091FC019091FD01EA
:1011F000A091FE01B091FF013091F60123E0230F91
:101200002D3758F50196A11DB11D2093F60180934D
:10121000FC019093FD01A093FE01B093FF0180912A
:10122000F7019091F801A091F901B091FA010196AE
:10123000A11DB11D8093F7019093F801A093F901CE
:10124000B093FA01BF91AF919F918F913F912F91F0
:101250000F900FBE0F901F90189526E8230F02964F
:10126000A11DB11DD2CF1F920F920FB60F92112464
:101270002F933F934F935F936F937F938F939F939E
:10128000AF93BF93EF93FF93E0910201F0910301BD
:101290000995FF91EF91BF91AF919F918F917F91B0
:1012A0006F915F914F913F912F910F900FBE0F90D3
:1012B0001F9018951F920F920FB60F9211242F9323
:1012C0003F934F935F936F937F938F939F93AF93CE
:1012D000BF93EF93FF93E0910001F0910101099515
:1012E000FF91EF91BF91AF919F918F917F916F91FE
:1012F0005F914F913F912F910F900FBE0F901F90D4
:1013000018951F920F920FB60F9211242F933F93AF
:101310004F935F936F937F938F939F93AF93BF93FD
:10132000EF93FF938091B900887F803609F44AC01B
:10133000F0F5883209F4A7C018F5803109F49BC094
:10134000B8F4882309F4F9C0883009F494C0FF91F7
:10135000EF91BF91AF919F918F917F916F915F912D
:101360004F913F912F910F900FBE0F901F901895A6
:10137000883109F488C0803251F78093920214C0FA
:10138000803409F49DC040F48033B9F38833F9F612
:101390008093920285ECB0C0803509F485C0883511
:1013A00009F496C0883499F60E945908D0CF88393C
:1013B00009F48CC038F5883729F050F4883611F0DC
:1013C000803729F683E0809394021092F50157C08C
:1013D000883809F47BC0803919F0803809F0B7CF1C
:1013E0008091F501803208F071C0E091F50181E053
:1013F0008E0F8093F5018091BB00F0E0EB52FE4F21
:1014000080833DC0803B39F0E0F4803A09F479C034
:10141000883A09F09CCF84E0809394021092D40122
:101420001092D301E0916802F091690209958091D0
:10143000D30181110FC081E08093D3011092B301D9
:1014400009C0803C09F4A6CF883C09F4A3CF883BAF
:1014500009F07DCFE091D40181E08E0F8093D4011B
:10146000F0E0ED54FE4F80818093BB009091D40159
:101470008091D30129C080916F028093BB0085ECDD
:101480008093BC0064CF9091910280919002981754
:1014900058F5E091910281E08E0F80939102F0E087
:1014A000E059FD4F8081E9CFE091910281E08E0FFC
:1014B000809391028091BB00F0E0E059FD4F808362
:1014C00090919102809190029817C8F285E8D8CF48
:1014D000E091910281E08E0F809391028091BB0098
:1014E000F0E0E059FD4F80838091930281115CCF41
:1014F00081E080936E0284EA8093BC001092940293
:1015000026CF85EC8093BC00109294028091F50167
:10151000803230F4E091F501F0E0EB52FE4F1082A2
:101520006091F50170E0E0916A02F0916B0285ED47
:1015300091E009951092F5010ACF1092920234CFF2
:10154000EEEBF2E01382128248EE53E060E070E0CE
:10155000448355836683778388E091E09183808319
:1015600085EC90E09587848784EC90E09787868768
:1015700080EC90E0918B808B81EC90E0938B828B60
:1015800082EC90E0958B848B86EC90E0978B868B39
:10159000118E128E138E148EAFE6B3E013961C924A
:1015A0001E92129714964D935D936D937C931797AB
:1015B0008AE191E011969C938E93EBE7F3E080E251
:1015C0008083B783A68311828FEF82838383158202
:1015D0001482E7E6F3E091E29083B783A683118259
:1015E0008283838315821482EBE5F3E013821282F7
:1015F0008CE291E091838083158216821782108697
:1016000011861286138682E284830895CF93DF9336
:10161000CDB7DEB72E970FB6F894DEBF0FBECDBFA5
:10162000789484B5826084BD84B5816084BD85B5BD
:10163000826085BD85B5816085BD80916E008160C9
:1016400080936E001092810080918100826080936F
:101650008100809181008160809381008091800071
:101660008160809380008091B10084608093B1009C
:101670008091B00081608093B00080917A00846096
:1016800080937A0080917A00826080937A008091C2
:101690007A00816080937A0080917A0080688093DC
:1016A0007A001092C100E091CE02F091CF0282E068
:1016B0008083E091CA02F091CB021082E091CC02CB
:1016C000F091CD028FEC80831092D602E091D2028D
:1016D000F091D30286E08083E091D002F091D102B4
:1016E000808180618083E091D002F091D10280817D
:1016F00088608083E091D002F091D102808180687F
:101700008083E091D002F091D10280818F7D80832F
:1017100010926D0210926C0210929B021092BD0208
:101720000E94EE028DEC90E0909369028093680233
:101730008EEC90E090936B0280936A0260E08BE500
:1017400093E00E94A30462E370E080E090E00E94D6
:101750009402109260031092610341E060E38BE514
:1017600093E00E94C1058BE991E40197F1F741E014
:1017700060E38BE593E00E94C10583E592E0019769
:10178000F1F741E060E38BE593E00E94C1050FE8CB
:1017900010E0C8010197F1F741E060E28BE593E0CA
:1017A0000E94C105C8010197F1F740E068E28BE5AE
:1017B00093E00E94C105C8010197F1F71092600300
:1017C0001092610360916503862F846080936503A6
:1017D0006C6040E08BE593E00E94C105C801019771
:1017E000F1F70E9435061092600310926103609138
:1017F0006603862F826080936603666040E08BE517
:1018000093E00E94C105C8010197F1F781E0809340
:10181000630368E08BE593E00E94A30460E085E049
:101820000E94230684E391E00E94830561E085E045
:101830000E9423068AE391E00E94830564EF71E031
:1018400080E090E00E9494020E94350661E08AE008
:101850000E943E0261E08BE00E943E0261E08CE06B
:101860000E943E0287E693E00E94D5048BE793E056
:101870000E94D50462E082E00E943E028FEC90E07C
:101880009093010180930001809169008C7F8260B8
:1018900080936900E89AE8E0F2E0118210821382F6
:1018A0001282158214821782168211861086138680
:1018B00012863C9622E0E836F20779F7AA24A39430
:1018C000B12CACE08A2E0E94350660E080E00E94D8
:1018D000230681E491E00E94830561E080E00E949C
:1018E00023068CE491E00E94830561E087E00E947A
:1018F0002306109260031092610360916503862FA6
:10190000816080936503696040E08BE593E00E940D
:10191000C1058FE890E00197F1F7EE24E394F12CF4
:1019200003E010E06FEF87E693E00E94B5041092A9
:101930000702912C80910702843008F070C0B50135
:1019400001C0660F8A95EAF7609580916903682364
:101950006093690387E693E00E94B5041092FB014F
:10196000D090FB0183E08D1508F439C087E693E041
:101970000E94510684E08D0DF50102C0EE0FFF1F9D
:101980008A95E2F7CF012091680330E08223932308
:10199000892B09F446C093948091FB018F5F80935B
:1019A000FB01DECF30E12316310409F4BBCF2EE07A
:1019B000291508F467C1F101E052F34F0C9441136B
:1019C000DE0DDE0DDE0D420E7C0F7C0F7C0F420E15
:1019D0002C0E2C0E2C0E420E310EE20D090F8091B2
:1019E0000702883060F021E830E030936C032093E8
:1019F0006B03809107028F5F809307029BCFF501F5
:101A000002C0EE0FFF1F8A95E2F7609169036E2B0B
:101A10006093690387E693E00E94B504EACFE0E1B2
:101A20009E2E292C312C6AE070E080E090E00E942C
:101A3000940280910602882321F00E943A071092B6
:101A400006028EEB92E00E9438012C01892B09F4EA
:101A5000A9CF8EEB92E00E9416018E35910509F018
:101A60009FC020E032E03A87298769012FB7F894B8
:101A70008091FC019091FD01A091FE01B091FF01C8
:101A80002FBF8093C6029093C702A093C802B09361
:101A9000C9028EEB92E00E94160197FF23C22FB776
:101AA000F8948091FC019091FD01A091FE01B0910C
:101AB000FF012FBF4091C6025091C7026091C8023A
:101AC0007091C902841B950BA60BB70B4091C20203
:101AD0005091C3026091C4027091C50284179507AA
:101AE000A607B707B0F2809100028053990B889E39
:101AF000F001899EF00D1124E85FFD4FB182A082B4
:101B00001782168273E0C72ED12CFE87ED87898558
:101B10009A8501969A8789879FEFC916D906E1F1C0
:101B2000B6010D2C000C880B990B0E94800F9B01B5
:101B3000AC0160E070E080E291E40E941C112B0196
:101B40003C01E985FA8560816053770B072E000C14
:101B5000880B990B0E94800FA30192010E94BB0F7A
:101B60002B013C01ED85FE8560817181072E000C03
:101B7000880B990B0E94800F9B01AC01C301B2013D
:101B80000E947A100E94E610ED85FE8571836083C5
:101B9000F1E0CF1AD108BBCFF4E0F093070251CFA8
:101BA0008EEB92E00E943801892B09F44ACF8EEB2C
:101BB00092E00E94160180930702F2CF21013FEFCD
:101BC000431A530A61E08AE0801B0E942306052C19
:101BD000000C660877084AE0C301B2010E9435058F
:101BE000F801EE0FFF1F81E090E08C0F9D1FE80FC2
:101BF000F91FF182E082B801012E000C880B990BCD
:101C00000E94800F9B01AC0160E070E080E291E4F3
:101C10000E941C1169877A878B879C87C301B20158
:101C20000E94800F29853A854B855C850E94BB0FF9
:101C30002B013C01B701FF0C880B990B0E94800F10
:101C40009B01AC01C301B2010E947A100E94E61010
:101C50007B010150110916C0210181E0481A510889
:101C6000B1CF61E080E00E9423068CE491E00E9405
:101C7000830561E087E00E942306EE24E394F12CC3
:101C800003E010E068EC70E080E090E00E949402D5
:101C90000F3F100709F046CEE8E0F2E090E080E068
:101CA0008830910509F4D9C08C01208131812E152D
:101CB0003F0509F0CFC026813781232B09F0CAC028
:101CC000809307020E943506109260031092610310
:101CD000609165036E7F60936503686040E08BE50B
:101CE00093E00E94C1058FE890E00197F1F7043975
:101CF00081E0180709F4DFC0F02E402F60E380E395
:101D00000E94030560E080E00E94230688E591E0E0
:101D10000E94830561E080E00E94230687E691E04F
:101D20000E94830568EE73E080E090E00E949402D8
:101D30000E9435061127809EF001819EF00D11242E
:101D4000E85FFD4FB582A48290E080E03696F11006
:101D50000BC020813181232B39F4DC01A85FBD4FFA
:101D60001396BC92AE9212970C968036910579F735
:101D700088E08093070241E050E060E070E0002ED0
:101D800004C0440F551F661F771F0A94D2F79A01AB
:101D90004095842F90E0982F8827820F931F0E94F0
:101DA000A90560E080E00E9423068FE691E00E9492
:101DB000830561E080E00E94230689E791E00E94AC
:101DC0008305809E7001819EF00C1124F701E85F6D
:101DD000FD4F7F016F01F4E0CF0ED11C28E0E20E31
:101DE000F11CF60120813181F70180819181281752
:101DF0003907C9F180910602882321F00E943A0731
:101E0000109206026AE070E080E090E00E94940286
:101E1000E8CF0330110509F435CF0F5F1F4FF801EC
:101E2000EE0FFF1F21E030E02C0F3D1FE20FF31FEC
:101E3000E080F1808AE0D82ED01A61E08D2D0E94DA
:101E4000230686E591E00E94830561E08D2D0E94C6
:101E5000230618CF01963C9623CF88E08093070293
:101E600004E911E02FCFE8E0F2E089E0815031F0A1
:101E700015821482138212823C96F8CF88E08093F8
:101E80000702809EF001819EF00D1124E85FFD4F56
:101E9000B782A68290E080E00E94A90580E090E0F1
:101EA000892B09F410CD0E944401882309F409CD3F
:101EB0000E94000006CD60E080E00E94230681E8D9
:101EC00091E00E94830561E080E00E94230687E89C
:101ED00091E00E94830568EE73E080E090E00E944C
:101EE0009402DCCFF60181936F0125E032E02E17DA
:101EF0003F0709F0BBCDF7CD210164CEE89409C0BE
:101F000097FB3EF490958095709561957F4F8F4F2C
:101F10009F4F9923A9F0F92F96E9BB279395F69542
:101F2000879577956795B795F111F8CFFAF4BB0FC0
:101F300011F460FF1BC06F5F7F4F8F4F9F4F16C024
:101F4000882311F096E911C0772321F09EE8872FAE
:101F5000762F05C0662371F096E8862F70E060E06A
:101F60002AF09A95660F771F881FDAF7880F9695E3
:101F7000879597F908950E94CE0F0C943F100E9408
:101F8000311038F00E94381020F0952311F00C9495
:101F900028100C942E1011240C9473100E945010D1
:101FA00070F3959FC1F3950F50E0551F629FF001AC
:101FB000729FBB27F00DB11D639FAA27F00DB11DC5
:101FC000AA1F649F6627B00DA11D661F829F22274E
:101FD000B00DA11D621F739FB00DA11D621F839FD5
:101FE000A00D611D221F749F3327A00D611D231FAB
:101FF000849F600D211D822F762F6A2F11249F57F9
:1020000050409AF0F1F088234AF0EE0FFF1FBB1FFB
:10201000661F771F881F91505040A9F79E3F5105BA
:1020200080F00C9428100C9473105F3FE4F3983EFA
:10203000D4F3869577956795B795F795E7959F5F64
:10204000C1F7FE2B880F911D9695879597F90895F6
:1020500097F99F6780E870E060E008959FEF80EC5B
:10206000089500240A9416161706180609060895FE
:1020700000240A9412161306140605060895092E64
:102080000394000C11F4882352F0BB0F40F4BF2BD3
:1020900011F460FF04C06F5F7F4F8F4F9F4F089513
:1020A00057FD9058440F551F59F05F3F71F0479509
:1020B000880F97FB991F61F09F3F79F087950895EE
:1020C000121613061406551FF2CF4695F1DF08C00D
:1020D000161617061806991FF1CF8695710561052A
:1020E00008940895E894BB2766277727CB0197F9D2
:1020F00008955058BB27AA270E9491100C943F10B6
:102100000E94311038F00E94381020F039F49F3FBF
:1021100019F426F40C942E100EF4E095E7FB0C94C1
:102120002810E92F0E94501058F3BA17620773075E
:102130008407950720F079F4A6F50C9472100EF43C
:10214000E0950B2EBA2FA02D0B01B90190010C01C7
:10215000CA01A0011124FF27591B99F0593F50F4DF
:10216000503E68F11A16F040A22F232F342F442737
:10217000585FF3CF469537952795A795F04053952F
:10218000C9F77EF41F16BA0B620B730B840BBAF0FF
:102190009150A1F0FF0FBB1F661F771F881FC2F76A
:1021A0000EC0BA0F621F731F841F48F4879577957E
:1021B0006795B795F7959E3F08F0B0CF9395880F38
:1021C00008F09927EE0F9795879508950E94ED10D6
:1021D0006894B1110C94731008950E94581088F0FF
:1021E0009F5798F0B92F9927B751B0F0E1F0660FDB
:1021F000771F881F991F1AF0BA95C9F714C0B1301C
:1022000091F00E947210B1E008950C947210672F43
:10221000782F8827B85F39F0B93FCCF3869577954A
:102220006795B395D9F73EF4909580957095619533
:102230007F4F8F4F9F4F0895FA01EE0FFF1F30968B
:1022400021053105A1F16115710561F48038BFE305
:102250009B0749F168949038810561F08038BFEFA1
:102260009B0741F099234AF5FF3FE1053105210520
:1022700019F1E8940894E795D901AA2329F4AB2F22
:10228000BE2FF85FD0F310C0FF5F70F4A695E0F7A3
:10229000F73950F019F0FF3A38F49F779F930DD03B
:1022A0000F9007FC9058089546F00C942E1060E0B3
:1022B00070E080E89FE308954FE79F775F934F9327
:1022C0003F932F930E9417122F913F914F915F914F
:1022D0000E94BB0F0C94741129F416F00C94281072
:1022E0000C9472100C942E100E945810A8F396387B
:1022F000A0F707F80F92E8942BE33AEA48EB5FE780
:102300000E94D10F0F920F920F924DB75EB70F92AE
:102310000E945F12E8E6F0E00E94A6114F915F91E3
:10232000EF91FF91E595EE1FFF1F49F0FE57E06822
:102330004427EE0F441FFA95E1F74195550B0E9493
:10234000D9110F9007FE0C94CD110895DF93CF9310
:102350001F930F93FF92EF92DF927B018C016894A1
:1023600006C0DA2EEF010E94CE0FFE01E894A5917F
:102370002591359145915591A6F3EF010E94911059
:10238000FE019701A801DA9469F7DF90EF90FF90C2
:102390000F911F91CF91DF9108959B01AC0160E0F7
:1023A00070E080E89FE30C9493120C9428100C9436
:1023B00005130E945810D8F39923C9F3940F511DA7
:1023C000A3F39150504094F059F0882332F0660FF7
:1023D000771F881F91505040C1F79E3F51052CF741
:1023E000880F911D9695879597F908955F3FACF0FA
:1023F000983E9CF0BB27869577956795B79508F42E
:10240000B1609395C1F7BB0F58F711F460FFE8CFA7
:102410006F5F7F4F8F4F9F4FE3CF0C94731016F079
:102420000C9405130C942E1068940C9428100E94A0
:102430005810A8F39923C1F3AEF3DF93CF931F9302
:102440000F93FF92C92FDD2788232AF02197660F6B
:10245000771F881FDAF720E030E040E85FEB9FE36A
:10246000883920F0803E38F021968F770E947A10CC
:10247000E0E9F0E004C00E947A10EDEBF0E00E9489
:10248000A6118B01BE01EC01FB2E6F5771097595EA
:10249000771F880B990B0E94800F28E132E741E3F8
:1024A0005FE30E94CE0FAF2D9801AE01FF900F9118
:1024B0001F91CF91DF910E9491100C943F10FA016F
:1024C000DC01AA0FBB1F9B01AC01BF5728F42227D8
:1024D00033274427507820C0B75190F4AB2F002405
:1024E000469537952795011CA395D2F3002071F0EE
:1024F000220F331F441FB395DAF30ED00C947910DA
:1025000061307105A0E88A07B94630F49B01AC013F
:102510006627772788279078309621F020833183AB
:102520004283538308950E94A7120C943F100E9487
:10253000381058F00E94311040F029F45F3F29F024
:102540000C94281051110C9473100C942E100E94AE
:10255000501068F39923B1F3552391F3951B550B54
:10256000BB27AA2762177307840738F09F5F5F4F66
:10257000220F331F441FAA1FA9F335D00E2E3AF0A5
:10258000E0E832D091505040E695001CCAF72BD0BD
:10259000FE2F29D0660F771F881FBB1F261737070E
:1025A0004807AB07B0E809F0BB0B802DBF01FF2740
:1025B00093585F4F3AF09E3F510578F00C942810E5
:1025C0000C9473105F3FE4F3983ED4F386957795AF
:1025D0006795B795F7959F5FC9F7880F911D9695F9
:1025E000879597F90895E1E0660F771F881FBB1F55
:1025F000621773078407BA0720F0621B730B840B02
:10260000BA0BEE1F88F7E09508959F3F31F0915087
:1026100020F4879577956795B795880F911D9695C6
:10262000879597F90895991B79E004C0991F96172B
:1026300008F0961B881F7A95C9F780950895A1E246
:102640001A2EAA1BBB1BFD010DC0AA1FBB1FEE1F2C
:10265000FF1FA217B307E407F50720F0A21BB30B77
:10266000E40BF50B661F771F881F991F1A9469F7F3
:1026700060957095809590959B01AC01BD01CF014F
:102680000895EE0FFF1F0590F491E02D0994F89442
:02269000FFCF7A
:10269200C602C602000000007A01DA000701C70183
:1026A200380116012A0100000000740447043205B3
:1026B2001D0440042D041E04000000004306DA003D
:1026C20032053105486F6C6161004D756E646F2192
:1026D20000494E4752455345205355004E554D45EE
:1026E200524F3A2E2E2E2E00494E47524553452028
:1026F2005920544F4D4500415349454E544F0045D2
:10270200535045524520554E004D4F4D454E544F66
:1027120000434C41564500494E434F5252454354A3
:02272200410074
:00000001FF
